:020000020000FC
:0C0000000C949C010C944A040C94F10434
:10005C000C94E8034430A9F060930B011FEF1A9540
:10006C00F1F7109109011F701F3081F051E0332717
:10007C00343061F0212F252369F03395550F0C9402
:10008C003E0000E000930A020C949B01660F43951E
:10009C000C943000009100020130C9F0433089F01B
:1000AC00333099F0732F770F730F740F7F5F0091BC
:1000BC000002023041F000910002063051F00C9425
:1000CC009B010C9495000C94F1000C94CD000C94B5
:1000DC00ED000F931F932F930FB70F93D2E0CEE049
:1000EC002227072F0A95003041F0000F0A9519912D
:1000FC001881021711F02395FACF188110930B0277
:10010C00199110930C020F910FBF2F911F910F910A
:10011C007093090278B90C9426010C949B0171E43C
:10012C00730F009100020630C1F7713499F40F93EC
:10013C001F932F930FB70F9320910C02233021F0B4
:10014C00239520930C0229830F910FBF2F911F91A0
:10015C000F9141C0723499F40F931F932F930FB7E3
:10016C000F9320910C02213021F02A9520930C0240
:10017C0029830F910FBF2F911F910F912CC000E07D
:10018C0000930B0228C00C94F1000C949B0140309E
:10019C0069F04130C9F073E2009100020430B9F00B
:1001AC0000910002063099F00C949B017AE20091C8
:1001BC000002023051F700910A020A3261F004E1A8
:1001CC00009308020C94F10070E00C949B017FD119
:1001DC00ACC0BCD1AAC000910002063089F170936A
:1001EC0009027A3251F100910002023071F60F933C
:1001FC001F932F930FB70F93D2E0CEE02227072F38
:10020C000A95003041F0000F0A95199118810217D8
:10021C0011F02395FACF188110930B0219911093BA
:10022C000C020F910FBF2F911F910F9120910B0278
:10023C00203079F2DCD10C949B0170930A0275C0CA
:10024C000F931F932F930FB70F9308E3DFD4EED4C4
:10025C0007D508E3DBD4EAD4FAD408E3D7D4E6D440
:10026C0008E3D4D4E3D408E0D1D4E0D401E0CED474
:10027C00DDD406E0CBD4DAD40CE0C8D4D7D401E476
:10028C00CCD4D4D404E6C9D4D1D40DE6C6D4CED4BF
:10029C0009E6C3D4CBD40EE6C0D4C8D400E2BDD496
:1002AC00C5D40DE4BAD4C2D40FE6B7D4BFD404E697
:1002BC00B4D4BCD405E6B1D4B9D400E2AED4B6D42F
:1002CC0000910902005D002FA8D4B0D408EA9ED496
:1002DC00ADD400910B02005D002F9FD4A7D400E297
:1002EC009CD4A4D400E299D4A1D400E296D49ED498
:1002FC0000E293D49BD400E290D498D400E28DD445
:10030C0095D400E28AD492D404E2002F86D48ED401
:10031C0000910C02005D002F80D488D40F910FBF88
:10032C002F911F910F9100910C0208950FEF0DBFAB
:10033C0001E20EBF0FEF00BB07B901B903BB0027E9
:10034C0001BB02B908B904BB7727C4E0D2E000278F
:10035C0009930883C2E0D2E000270993088300E0E8
:10036C0004BD02E005BD01E000936E0010EF109398
:10037C000A0102E0009369000DB3016002600DBB3D
:10038C007894CEE0D2E001E0099301E0099302E019
:10039C00099302E0099303E0099301E0099304E057
:1003AC00099302E0099300E0099301E0099306E048
:1003BC00099302E0099307E0099301E0099308E02F
:1003CC00099302E0099309E0099301E0099300E025
:1003DC000093010201D0F2C101E00093000208E396
:1003EC0015D424D43DD408E311D420D430D408E35C
:1003FC000DD41CD408E30AD419D408E007D416D4BD
:10040C0001E004D413D406E001D410D40CE0FED3E4
:10041C000DD402E302D40AD401E3FFD307D402E3E0
:10042C00FCD304D401E3F9D301D400E2F6D3FED318
:10043C0001E3F3D3FBD307E3F0D3F8D303E7EDD316
:10044C00F5D301E3EAD3F2D300E2E7D3EFD300E232
:10045C00E4D3ECD300E2E1D3E9D301E4DED3E6D379
:10046C0004E3DBD3E3D308EAD1D3E0D306E5D5D359
:10047C00DDD305E6D2D3DAD30EE6CFD3D7D304E659
:10048C00CCD3D4D309E6C9D3D1D30EE6C6D3CED3BD
:10049C0007E6C3D3CBD300E2C0D3C8D30DE4BDD39E
:1004AC00C5D301E6BAD3C2D303E6B7D3BFD308E6AC
:1004BC00B4D3BCD309E6B1D3B9D30EE6AED3B6D31D
:1004CC0005E6ABD3B3D30CE000930602089502E02B
:1004DC000093000208E39AD3A9D3C2D308E396D3BE
:1004EC00A5D3B5D308E392D3A1D308E38FD39ED37E
:1004FC0008E08CD39BD301E089D398D306E086D354
:10050C0095D30CE083D392D303E587D38FD305E641
:10051C0084D38CD30CE681D389D305E67ED386D3E2
:10052C0003E67BD383D304E778D380D300E275D37F
:10053C007DD309E672D37AD304E76FD377D305E67C
:10054C006CD374D30DE669D371D3089508E35ED3ED
:10055C006DD386D308E35AD369D379D308E356D342
:10056C0065D308E353D362D308E050D35FD301E0E3
:10057C004DD35CD306E04AD359D30CE047D356D3C2
:10058C000FE44BD353D305E748D350D304E745D3FB
:10059C004DD300E242D34AD30FE63FD347D306E60E
:1005AC003CD344D300E239D341D303E736D33ED313
:1005BC0004E733D33BD30FE630D338D303E62DD344
:1005CC0035D30BE62AD332D308EA20D32FD310919C
:1005DC000902105D012F21D329D303E000930002FF
:1005EC000CE00093070200E000930D02089504E074
:1005FC000093000208E30AD319D332D308E306D3DD
:10060C0015D325D308E302D311D308E3FFD20ED3BD
:10061C0008E0FCD20BD301E0F9D208D306E0F6D205
:10062C0005D30CE0F3D202D309E4F7D2FFD20EE6E5
:10063C00F4D2FCD203E7F1D2F9D205E6EED2F6D22F
:10064C0002E7EBD2F3D204E7E8D2F0D200E2E5D233
:10065C00EDD203E6E2D2EAD20FE6DFD2E7D209E628
:10066C00DCD2E4D20EE6D9D2E1D203E7D6D2DED286
:10067C0008EACCD2DBD20091010208B910910C022D
:10068C00101B105D012FC9D2D1D208950F931F9367
:10069C002F930FB70F9308E3B9D2C8D2E1D208E376
:1006AC00B5D2C4D2D4D208E3B1D2C0D208E3AED210
:1006BC00BDD208E0ABD2BAD201E0A8D2B7D206E0E4
:1006CC00A5D2B4D20CE0A2D2B1D206E000930002C3
:1006DC0001E4A3D2ABD204E6A0D2A8D20DE69DD2FF
:1006EC00A5D209E69AD2A2D20EE697D29FD200E208
:1006FC0094D29CD20DE491D299D20FE68ED296D29E
:10070C0004E68BD293D205E688D290D200E285D251
:10071C008DD221E0209309020F931F932F930FB7D3
:10072C000F93D2E0CEE02227022F0A95003041F041
:10073C00000F0A9519911881021711F02395FACF21
:10074C00188110930B02199110930C020F910FBF8B
:10075C002F911F910F9128B9205D022F5ED266D286
:10076C0008EA54D263D220910B02205D022F55D29D
:10077C005DD200E252D25AD200E24FD257D200E2FE
:10078C004CD254D200E249D251D200E246D24ED2DF
:10079C0000E243D24BD200E240D248D224E2022FF4
:1007AC003CD244D220910C02205D022F36D23ED294
:1007BC000F910FBF2F911F910F9108956FEE44274A
:1007CC0049DCFCCF0F931F932F930FB70F93DF933D
:1007DC00CF939F938F938091040290910502019681
:1007EC00813A07E09007A1F500910002013041F435
:1007FC0000910602003089F10A950093060233C07D
:10080C0000910002023061F400910A020A3241F4B4
:10081C0000910802003021F10A950093080223C0D0
:10082C0000910002033029F5009107020030A9F075
:10083C00202F2170203041F41FEF20910D02212731
:10084C0020930D0228B924BB0A95009307020BC014
:10085C0080930402909305020CC00FE038DE09C0AF
:10086C0005E514DF06C0C4E0D2E000270993088335
:10087C0000C000E08F919F91CF91DF910F910FBF3E
:10088C002F911F910F9118950F931F932F930FB7C3
:10089C000F93DF93CF939F938F93002708B904BBDB
:1008AC0000910002063041F000910002033001F487
:1008BC000C94E7040CDE9FC10F931F932F930FB77B
:1008CC000F9320910B022A3021F0239520930B02D9
:1008DC0028830F910FBF2F911F910F910F931F938F
:1008EC002F930FB70F9308E391D1A0D1B9D108E39F
:1008FC008DD19CD1ACD108E389D198D108E386D1B4
:10090C0095D108E083D192D101E080D18FD106E05E
:10091C007DD18CD10CE07AD189D101E47ED186D104
:10092C0004E67BD183D10DE678D180D109E675D16F
:10093C007DD10EE672D17AD100E26FD177D10DE480
:10094C006CD174D10FE669D171D104E666D16ED148
:10095C0005E663D16BD100E260D168D10091090248
:10096C00005D002F5AD162D108EA50D15FD10091BD
:10097C000B02005D002F51D159D100E24ED156D15E
:10098C0000E24BD153D100E248D150D100E245D125
:10099C004DD100E242D14AD100E23FD147D100E231
:1009AC003CD144D104E2002F38D140D100910C024B
:1009BC00005D002F32D13AD10F910FBF2F911F91B3
:1009CC000F918F919F91CF91DF910F910FBF2F912D
:1009DC001F910F9118950F931F932F930FB70F9390
:1009EC00DF93CF939F938F93002708B904BB00919B
:1009FC000002063041F000910002033001F40C9427
:100A0C00010665DDF8C00F931F932F930FB70F935B
:100A1C0008E3FCD00BD124D108E3F8D007D117D1CF
:100A2C0008E3F4D003D108E3F1D000D108E0EED014
:100A3C00FDD001E0EBD0FAD006E0E8D0F7D00CE026
:100A4C00E5D0F4D001E4E9D0F1D004E6E6D0EED064
:100A5C000DE6E3D0EBD009E6E0D0E8D00EE6DDD031
:100A6C00E5D000E2DAD0E2D00DE4D7D0DFD00FE64B
:100A7C00D4D0DCD004E6D1D0D9D005E6CED0D6D0B7
:100A8C0000E2CBD0D3D000910902005D002FC5D07D
:100A9C00CDD008EABBD0CAD000910B02005D002F6C
:100AAC00BCD0C4D000E2B9D0C1D000E2B6D0BED028
:100ABC0000E2B3D0BBD000E2B0D0B8D000E2ADD0F1
:100ACC00B5D000E2AAD0B2D000E2A7D0AFD004E2F9
:100ADC00002FA3D0ABD000910C02005D002F9DD055
:100AEC00A5D00F910FBF2F911F910F910F931F93B3
:100AFC002F930FB70F9320910B02203021F02A95E2
:100B0C0020930B0228830F910FBF2F911F910F91F0
:100B1C000F931F932F930FB70F9308E377D086D0C3
:100B2C009FD008E373D082D092D008E36FD07ED0F0
:100B3C0008E36CD07BD008E069D078D001E066D0B7
:100B4C0075D006E063D072D00CE060D06FD001E4B9
:100B5C0064D06CD004E661D069D00DE65ED066D06E
:100B6C0009E65BD063D00EE658D060D000E255D0D9
:100B7C005DD00DE452D05AD00FE64FD057D004E6DA
:100B8C004CD054D005E649D051D000E246D04ED0DE
:100B9C0000910902005D002F40D048D008EA36D001
:100BAC0045D000910B02005D002F37D03FD000E202
:100BBC0034D03CD000E231D039D000E22ED036D047
:100BCC0000E22BD033D000E228D030D000E225D088
:100BDC002DD000E222D02AD004E2002F1ED026D045
:100BEC0000910C02005D002F18D020D00F910FBF88
:100BFC002F911F910F918F919F91CF91DF910F9119
:100C0C000FBF2F911F910F911895FFCF01BB1FD0D4
:100C1C00169A1DD016981BD0089501BB179A17D0A1
:100C2C00169A15D0169813D0179808950F9300277D
:100C3C0000BB01BB159A0BD0169A09D00FB11698B0
:100C4C0007FDF9CF15980FEF00BB0F9108958F9307
:100C5C009F939FE08CE90197F1F79F918F910895F5
:0C0C6C00F6DFF5DFF4DFF3DFF2DF0895C0
:00000001FF
