:020000020000FC
:0C0000000C94AD000C9431030C944C03E4
:10005C000C94D0024430A9F060930B011FEF1A9559
:10006C00F1F7109109011F701F3081F051E0332717
:10007C00343061F0212F252369F03395550F0C9402
:10008C003E0000E000930A020C94AC00660F43950E
:10009C000C94300000910002013099F1433069F06A
:1000AC00333079F0732F770F730F740F7F5F0091DC
:1000BC000002023051F10C94AC0071E4730F0C94FB
:1000CC00AC00403069F04130C9F073E2009100029D
:1000DC000430B9F000910002063099F00C94AC0099
:1000EC007AE200910002023089F500910A020A328C
:1000FC0061F004E1009308020C948B0070E00C9406
:10010C00AC00F9D023C038D121C0709309027A32E7
:10011C00D9F0009100020230C9F4D2E0CEE0072FF2
:10012C000A95000F2227199110930B021881109336
:10013C000C02021711F02395F6CF20910B02203000
:10014C0011F36DD10C94AC0070930A0208950FEF6B
:10015C000DBF01E20EBF0FEF00BB07B901B903BB26
:10016C00002701BB02B908B904BBC4E0D2E00027E8
:10017C0009930883C2E0D2E000270993088300E0CA
:10018C0004BD02E005BD01E000936E0010EF10937A
:10019C000A0102E0009369000DB3016002600DBB1F
:1001AC007894CEE0D2E001E0099301E0099300E0FD
:1001BC00099302E0099303E0099301E0099304E039
:1001CC00099302E0099300E0099301E0099306E02A
:1001DC00099302E0099307E0099301E0099308E011
:1001EC00099302E0099309E0099301E00993CEE039
:1001FC00D2E000E00093010201D0C8C10F9301E0EE
:10020C00009300020F9108E35DD26CD285D208E313
:10021C0059D268D278D208E355D264D208E352D2CC
:10022C0061D208E04FD25ED201E04CD25BD206E044
:10023C0049D258D20CE046D255D202E34AD252D21D
:10024C0001E347D24FD202E344D24CD201E341D274
:10025C0049D200E23ED246D201E33BD243D207E37D
:10026C0038D240D203E735D23DD201E332D23AD272
:10027C0000E22FD237D200E22CD234D200E229D2C3
:10028C0031D201E426D22ED204E323D22BD208EAB7
:10029C0019D228D206E51DD225D205E61AD222D2D1
:1002AC000EE617D21FD204E614D21CD209E611D2E4
:1002BC0019D20EE60ED216D207E60BD213D200E2FA
:1002CC0008D210D20DE405D20DD201E602D20AD228
:1002DC0003E6FFD107D208E6FCD104D209E6F9D136
:1002EC0001D20EE6F6D1FED105E6F3D1FBD10CE03E
:1002FC000093060208950F9302E0009300020F9101
:10030C0008E3E0D1EFD108D208E3DCD1EBD1FBD18B
:10031C0008E3D8D1E7D108E3D5D1E4D108E0D2D1B4
:10032C00E1D101E0CFD1DED106E0CCD1DBD10CE0C4
:10033C00C9D1D8D103E5CDD1D5D105E6CAD1D2D119
:10034C000CE6C7D1CFD105E6C4D1CCD103E6C1D1DF
:10035C00C9D104E7BED1C6D100E2BBD1C3D109E6F5
:10036C00B8D1C0D104E7B5D1BDD105E6B2D1BAD16F
:10037C000DE6AFD1B7D1089508E3A4D1B3D1CCD158
:10038C0008E3A0D1AFD1BFD108E39CD1ABD108E336
:10039C0099D1A8D108E096D1A5D101E093D1A2D1F1
:1003AC0006E090D19FD10CE08DD19CD10FE491D17E
:1003BC0099D105E78ED196D104E78BD193D100E288
:1003CC0088D190D10FE685D18DD106E682D18AD124
:1003DC0000E27FD187D103E77CD184D104E779D1C6
:1003EC0081D10FE676D17ED103E673D17BD10BE6BA
:1003FC0070D178D108EA66D175D110910902105DDF
:10040C00012F67D16FD10F9303E0009300020F917E
:10041C000CE00093070200E000930D0208950F9387
:10042C0004E0009300020F9108E34CD15BD174D12E
:10043C0008E348D157D167D108E344D153D108E33D
:10044C0041D150D108E03ED14DD101E03BD14AD150
:10045C0006E038D147D10CE035D144D109E439D18B
:10046C0041D10EE636D13ED103E733D13BD105E67F
:10047C0030D138D102E72DD135D104E72AD132D190
:10048C0000E227D12FD103E624D12CD10FE621D1C4
:10049C0029D109E61ED126D10EE61BD123D103E7C3
:1004AC0018D120D108EA0ED11DD10091010208B952
:1004BC0010910C02101B105D012F0BD113D108955C
:1004CC0008E300D10FD128D108E3FCD00BD11BD10C
:1004DC0008E3F8D007D108E3F5D004D108E0F2D056
:1004EC0001D101E0EFD0FED006E0ECD0FBD00CE067
:1004FC00E9D0F8D001E4EDD0F5D004E6EAD0F2D0A2
:10050C000DE6E7D0EFD009E6E4D0ECD00EE6E1D072
:10051C00E9D000E2DED0E6D00DE4DBD0E3D00FE68C
:10052C00D8D0E0D004E6D5D0DDD005E6D2D0DAD0F4
:10053C0000E2CFD0D7D00FE3CCD0D4D008EAC2D0D1
:10054C00D1D003E2C6D0CED000E2C3D0CBD000E2F3
:10055C00C0D0C8D000E2BDD0C5D000E2BAD0C2D065
:10056C0000E2B7D0BFD000E2B4D0BCD000E2B1D032
:10057C00B9D000E2AED0B6D004E2002FAAD0B2D0EF
:10058C000F9306E0009300020F9108956FEE44273D
:10059C0061DDFCCF0F931F932F930FB70F93DF9356
:1005AC00CF939F938F9380910402909105020196B3
:1005BC00813A07E09007A1F500910002013041F467
:1005CC0000910602003089F10A950093060233C0AF
:1005DC0000910002023061F400910A020A3241F4E7
:1005EC0000910802003021F10A950093080223C003
:1005FC0000910002033029F5009107020030A9F0A8
:10060C00202F2170203041F41FEF20910D02212763
:10061C0020930D0228B924BB0A95009307020BC046
:10062C0080930402909305020CC00FE064DE09C0B5
:10063C0005E546DF06C0C4E0D2E000270993088335
:10064C0000C08F919F91CF91DF910F910FBF2F9190
:10065C001F910F9118950F931F932F930FB70F9313
:10066C00DF93CF939F938F93002708B904BB00911E
:10067C000002033009F43FDE8F919F91CF91DF91FF
:10068C000F910FBF2F911F910F9118950F931F93DF
:10069C002F930FB70F93DF93CF939F938F930027D5
:1006AC0008B904BB00910002033009F424DE8F91D9
:1006BC009F91CF91DF910F910FBF2F911F910F91B0
:1006CC001895FFCF01BB1FD0169A1DD016981BD0C2
:1006DC00089501BB179A17D0169A15D0169813D0F7
:1006EC00179808950F93002700BB01BB159A0BD0E8
:1006FC00169A09D00FB1169807FDF9CF15980FEF80
:10070C0000BB0F9108958F939F939FE08CE9019705
:10071C00F1F79F918F910895F6DFF5DFF4DFF3DFAA
:04072C00F2DF08955B
:00000001FF
