:020000020000FC
:0C0000000C94B9000C94BF030C94DE03B8
:04005C000C945E039F
:100074000C9402034430A9F060930B011FEF1A950E
:10008400F1F7109109011F701F3081F051E03327FF
:10009400343061F0212F252369F03395550F0C94EA
:1000A4004A0000E000930A020C94B800660F4395DE
:1000B4000C943C0000910002013099F1433069F046
:1000C400333079F0732F770F730F740F7F5F0091C4
:1000D4000002023051F10C94B80071E4730F0C94D7
:1000E400B800403069F04130C9F073E20091000279
:1000F4000430B9F000910002063099F00C94B80075
:100104007AE200910002023089F500910A020A3273
:1001140061F004E1009308020C94970070E00C94E1
:10012400B80004D123C05ED121C0709309027A3291
:10013400D9F0009100020230C9F4D2E0C2E1072FE5
:100144000A95000F2227199110930F02188110931A
:100154001002021711F02395F6CF20910F022030E0
:1001640011F393D10C94B80070930A0208950FEF21
:100174000DBF01E20EBF0FEF00BB07B901B903BB0E
:10018400002701BB02B908B904BBC4E0D2E00027D0
:1001940009930883C2E0D2E000270993088300E0B2
:1001A40004BD02E005BD01E000936E0010EF109362
:1001B4000A0102E0009369000DB3016002600DBB07
:1001C40000EC00937C0008E000937B000DEC0093AE
:1001D4007A007894C2E1D2E001E0099301E0099346
:1001E40000E0099302E0099303E0099301E0099315
:1001F40004E0099302E0099300E0099301E0099304
:1002040006E0099302E0099307E0099301E00993EA
:1002140008E0099302E0099309E0099301E00993D6
:10022400C2E1D2E000E00093010200930E0201D08B
:10023400E3C10F9301E0009300020F9108E3DCD2C5
:10024400EBD204D308E3D8D2E7D2F7D208E3D4D26E
:10025400E3D208E3D1D2E0D208E0CED2DDD201E08D
:10026400CBD2DAD206E0C8D2D7D20CE0C5D2D4D2EF
:1002740002E3C9D2D1D201E3C6D2CED202E3C3D2C1
:10028400CBD201E3C0D2C8D200E2BDD2C5D201E3D1
:10029400BAD2C2D207E3B7D2BFD203E7B4D2BCD238
:1002A40001E3B1D2B9D200E2AED2B6D200E2ABD20F
:1002B400B3D200E2A8D2B0D201E4A5D2ADD204E315
:1002C400A2D2AAD208EA98D2A7D206E59CD2A4D296
:1002D40005E699D2A1D20EE696D29ED204E693D236
:1002E4009BD209E690D298D20EE68DD295D207E63B
:1002F4008AD292D200E287D28FD20DE484D28CD2F9
:1003040001E681D289D203E67ED286D208E67BD288
:1003140083D209E678D280D20EE675D27DD205E684
:1003240072D27AD20CE00093060208950091000282
:100334000430B9F40091010200930E0200E000932E
:10034400010208B90F9300E000930D020F910F937F
:1003540000E000930B020F910F9300E000930C0256
:100364000F910F9302E0009300020F9108E344D22F
:1003740053D26CD208E340D24FD25FD208E33CD2CE
:100384004BD208E339D248D208E036D245D201E054
:1003940033D242D206E030D23FD20CE02DD23CD24E
:1003A40003E531D239D205E62ED236D20CE62BD271
:1003B40033D205E628D230D203E625D22DD204E783
:1003C40022D22AD200E21FD227D209E61CD224D29A
:1003D40004E719D221D205E616D21ED20DE613D2B5
:1003E4001BD2089508E308D217D230D208E304D20E
:1003F40013D223D208E300D20FD208E3FDD10CD2EA
:1004040008E0FAD109D201E0F7D106D206E0F4D12E
:1004140003D20CE0F1D100D20FE4F5D1FDD105E710
:10042400F2D1FAD104E7EFD1F7D100E2ECD1F4D163
:100434000FE6E9D1F1D106E6E6D1EED100E2E3D14F
:10044400EBD103E7E0D1E8D104E7DDD1E5D10FE654
:10045400DAD1E2D103E6D7D1DFD10BE6D4D1DCD1B6
:1004640008EACAD1D9D110910902105D012FCBD16C
:10047400D3D10F9303E0009300020F910CE000939B
:10048400070200E00093110208950F9304E0009323
:1004940000020F9108E3B0D1BFD1D8D108E3ACD1A9
:1004A400BBD1CBD108E3A8D1B7D108E3A5D1B4D14E
:1004B40008E0A2D1B1D101E09FD1AED106E09CD138
:1004C400ABD10CE099D1A8D109E49DD1A5D10EE618
:1004D4009AD1A2D103E797D19FD105E694D19CD1BB
:1004E40002E791D199D104E78ED196D100E28BD164
:1004F40093D103E688D190D10FE685D18DD109E659
:1005040082D18AD10EE67FD187D103E77CD184D111
:1005140008EA72D181D10091010208B91091100248
:10052400101B105D012F6FD177D1089508E364D1BA
:1005340073D18CD108E360D16FD17FD108E35CD152
:100544006BD108E359D168D108E056D165D101E0F7
:1005540053D162D106E050D15FD10CE04DD15CD1D2
:1005640001E451D159D104E64ED156D10DE64BD117
:1005740053D109E648D150D10EE645D14DD100E220
:1005840042D14AD10DE43FD147D10FE63CD144D109
:1005940004E639D141D105E636D13ED100E233D16A
:1005A4003BD10FE330D138D108EA26D135D103E26B
:1005B4002AD132D100E227D12FD100E224D12CD18B
:1005C40000E221D129D100E21ED126D100E21BD1C3
:1005D40023D100E218D120D100E215D11DD100E2CF
:1005E40012D11AD104E2002F0ED116D10F9306E0D6
:1005F400009300020F9108956FEE44273BDDFCCF7A
:100604000F931F932F930FB70F93DF93CF939F9362
:100614008F93E0917800F091790000EC00937C00D6
:1006240008E000937B000DEC00937A00E03010E0CA
:10063400F10771F0EF3F13E0F107B9F08F919F914B
:10064400CF91DF910F910FBF2F911F910F911895AB
:1006540000910002043091F700910C02003031F156
:1006640000910D02013051F0E9CF009100020430F5
:1006740029F700910B02013071F0E0CF00910102E3
:10068400000F03950093010208B90F9300E0009353
:100694000D020F91D3CF0F9301E000930C020F9141
:1006A4000F9301E000930D020F91C8CF0F9301E067
:1006B40000930B020F91C2CF0F931F932F930FB789
:1006C4000F93DF93CF939F938F9380910402909124
:1006D40005020196813A07E09007A1F50091000216
:1006E400013041F400910602003089F10A9500932B
:1006F400060233C000910002023061F400910A0244
:100704000A3241F400910802003021F10A95009365
:10071400080223C000910002033029F5009107026A
:100724000030A9F0202F2170203041F41FEF2091D8
:10073400110221272093110228B924BB0A950093A2
:1007440007020BC080930402909305020CC00FE0D3
:10075400EDDD09C005E5EADE06C0C4E0D2E000270D
:100764000993088300C08F919F91CF91DF910F91DE
:100774000FBF2F911F910F9118950F931F932F93D4
:100784000FB70F93DF93CF939F938F930091000242
:10079400033041F4002708B904BB00910002033080
:1007A40009F4C4DD8F919F91CF91DF910F910FBF19
:1007B4002F911F910F9118950F931F932F930FB79C
:1007C4000F93DF93CF939F938F9300910002033095
:1007D40041F4002708B904BB00910002033009F476
:1007E400A5DD8F919F91CF91DF910F910FBF2F9135
:1007F4001F910F911895FFCF01BB1FD0169A1DD0E2
:1008040016981BD0089501BB179A17D0169A15D0C5
:10081400169813D0179808950F93002700BB01BBB7
:10082400159A0BD0169A09D00FB1169807FDF9CF77
:1008340015980FEF00BB0F9108958F939F939FE03E
:100844008CE90197F1F79F918F910895F6DFF5DF19
:08085400F4DFF3DFF2DF089589
:00000001FF
