:020000020000FC
:0C0000000C9434020C94C8050C942507E5
:04005C000C944405B7
:100074000C94D2014430A9F060930B011FEF1A9540
:10008400F1F7109109011F701F3081F051E03327FF
:10009400343061F0212F252369F03395550F0C94EA
:1000A4004A0000E000930A020C94D101660F4395C4
:1000B4000C943C00009100020130C9F0433089F0F7
:1000C400333099F0732F770F730F740F7F5F0091A4
:1000D4000002023041F000910002063051F00C940D
:1000E400D1010C94A1000C9406010C94DA000C9438
:1000F40002010F931F932F930FB70F93D2E0C4E124
:100104002227072F0A95003041F0000F0A95199114
:100114001881021711F02395FACF18811093110258
:100124001981109312020F910FBF2F911F910F91FC
:100134007093090278B90C943B010C94D10171E4D9
:10014400730F009100020630C1F7713499F40F93D4
:100154001F932F930FB70F9320911202233021F096
:1001640023952093120229830F910FBF2F911F9182
:100174000F914AC0723499F40F931F932F930FB7C2
:100184000F9320911202213021F02A95209312021C
:1001940029830F910FBF2F911F910F9135C000E05C
:1001A40000931102088330C00C9406010C94D10111
:1001B4004030A9F0413009F173E210910F02110FA0
:1001C4001093100210E010930F020091000204300B
:1001D400B9F000910002063099F00C94D1017AE252
:1001E40000910002023011F700910A020A3261F014
:1001F40004E1009308020C94060170E00C94D10110
:1002040016D2CDC06AD2CBC000910002063089F16B
:10021400709309027A3251F100910002023031F6F2
:100224000F931F932F930FB70F93D2E0C4E12227AC
:10023400072F0A95003041F0000F0A951991188193
:10024400021711F02395FACF188110931102198126
:10025400109312020F910FBF2F911F910F912091B4
:100264001102203079F28AD20C94D10170930A02DF
:1002740096C00F931F932F930FB70F9308E341D7A3
:1002840050D769D708E33DD74CD75CD708E339D7B3
:1002940048D708E336D745D708E033D742D701E03B
:1002A40030D73FD706E02DD73CD70CE02AD739D733
:1002B40001E42ED736D704E62BD733D70DE628D75B
:1002C40030D709E625D72DD70EE622D72AD700E264
:1002D4001FD727D70DE41CD724D70FE619D721D76A
:1002E40004E616D71ED705E613D71BD700E210D7AE
:1002F40018D700910902005D002F0AD712D708EA27
:1003040000D70FD700911102005D002F01D709D744
:1003140000E2FED606D700E2FBD603D700E2F8D609
:1003240000D700E2F5D6FDD600E2F2D6FAD600E216
:10033400EFD6F7D600E2ECD6F4D604E2002FE8D6E6
:10034400F0D600911202005D002FE2D6EAD60F9398
:100354001F932F930FB70F9300911102093038F0B8
:1003640011E014BB0A3028F013E014BB02C01127BB
:1003740014BB1127003031F0110F1F5F0A950030B4
:1003840009F0FACF18B90F910FBF2F911F910F9158
:100394000F910FBF2F911F910F9100911202089599
:1003A4000F931F932F930FB70F93DF93CF939F93C5
:1003B4008F93E0917800F091790000EC00937C0039
:1003C40008E000937B000DEC00937A00E03010E02D
:1003D400F10771F0EF3F13E0F107B9F08F919F91AE
:1003E400CF91DF910F910FBF2F911F910F9118950E
:1003F40000910002043091F700910D02003061F188
:1004040000910E02013051F0E9CF00910002043056
:1004140029F700910C020130A1F0E0CF0091010214
:10042400000F03950093010208B90F9300E00093B5
:100434000E020F9110910F02139510930F029ED18B
:10044400CDCF0F9301E000930D020F910F9301E0C4
:1004540000930E020F91C2CF0F9301E000930C02A0
:100464000F91BCCF0FEF0DBF01E20EBF0FEF00BB2A
:1004740007B901B903BB002701BB02B908B904BB22
:10048400C4E0D2E0002709930883C2E0D2E0002749
:100494000993088300E004BD02E005BD01E0009378
:1004A4006E0010EF10930A0102E0009369000DB38F
:1004B400016002600DBB00EC00937C0008E0009337
:1004C4007B000DEC00937A000FEF0DB900270EB9F5
:1004D4000FEF04B9002705B97894C4E1D2E001E034
:1004E400099301E0099302E0099302E0099303E010
:1004F400099301E0099304E0099302E0099300E001
:10050400099301E0099306E0099302E0099307E0E7
:10051400099301E0099308E0099302E0099309E0D3
:10052400099301E0099300E00093010200930F0294
:100534000093100201D0A2C201E00093000208E37C
:10054400E0D5EFD508D608E3DCD5EBD5FBD508E339
:10055400D8D5E7D508E3D5D5E4D508E0D2D5E1D59B
:1005640001E0CFD5DED506E0CCD5DBD50CE0C9D58E
:10057400D8D502E3CDD5D5D501E3CAD5D2D502E38A
:10058400C7D5CFD501E3C4D5CCD500E2C1D5C9D5F3
:1005940001E3BED5C6D507E3BBD5C3D503E7B8D5BC
:1005A400C0D501E3B5D5BDD500E2B2D5BAD500E2D8
:1005B400AFD5B7D500E2ACD5B4D501E4A9D5B1D552
:1005C40004E3A6D5AED508EA9CD5ABD506E5A0D5FF
:1005D400A8D505E69DD5A5D50EE69AD5A2D504E6FF
:1005E40097D59FD509E694D59CD50EE691D599D596
:1005F40007E68ED596D500E28BD593D50DE488D544
:1006040090D501E685D58DD503E682D58AD508E651
:100614007FD587D509E67CD584D50EE679D581D5F5
:1006240005E676D57ED50CE0009306020895009188
:100634000002043099F400E00093010208B90F931A
:1006440000E000930E020F910F9300E000930C0260
:100654000F910F9300E000930D020F9102E00093BD
:10066400000208E34ED55DD576D508E34AD559D5C1
:1006740069D508E346D555D508E343D552D508E0F6
:1006840040D54FD501E03DD54CD506E03AD549D506
:100694000CE037D546D503E53BD543D505E638D53B
:1006A40040D50CE635D53DD505E632D53AD503E639
:1006B4002FD537D504E72CD534D500E229D531D54B
:1006C40009E426D52ED504E723D52BD505E620D578
:1006D40028D50DE61DD525D5089508E312D521D5D5
:1006E4003AD508E30ED51DD52DD508E30AD519D57D
:1006F40008E307D516D508E004D513D501E001D5E4
:1007040010D506E0FED40DD50CE0FBD40AD50FE4D9
:10071400FFD407D505E7FCD404D504E7F9D401D503
:1007240000E2F6D4FED40FE6F3D4FBD406E6F0D40C
:10073400F8D400E2EDD4F5D403E5EAD4F2D404E726
:10074400E7D4EFD40FE6E4D4ECD403E6E1D4E9D45F
:100754000BE6DED4E6D408EAD4D4E3D4109109023B
:10076400105D012FD5D4DDD403E0009300020CE02A
:100774000093070200E000931302089504E000933D
:10078400000208E3BED4CDD4E6D408E3BAD4C9D475
:10079400D9D408E3B6D4C5D408E3B3D4C2D408E0AA
:1007A400B0D4BFD401E0ADD4BCD406E0AAD4B9D44B
:1007B4000CE0A7D4B6D409E4ABD4B3D40EE6A8D4E1
:1007C400B0D403E7A5D4ADD405E6A2D4AAD402E7F5
:1007D4009FD4A7D404E79CD4A4D400E299D4A1D490
:1007E40003E496D49ED40FE693D49BD409E690D424
:1007F40098D40EE68DD495D403E78AD492D408EA2B
:1008040080D48FD40091010208B910911202009192
:100814000F02101B11302CF0105D012F79D481D4FC
:10082400089505E00093000208E36BD47AD493D4CE
:1008340008E367D476D486D408E363D472D408E397
:1008440060D46FD408E05DD46CD401E05AD469D488
:1008540006E057D466D40CE054D463D404E458D4EA
:1008640060D405E655D45DD40CE652D45AD409E6D6
:100874004FD457D406E74CD454D405E649D451D4C4
:1008840002E746D44ED409E643D44BD40EE640D412
:1008940048D407E63DD445D400E23AD442D409E42E
:1008A40037D43FD404E734D43CD405E631D439D426
:1008B4000DE62ED436D423E00F931F932F930FB756
:1008C4000F9320911102203021F02A9520931102D8
:1008D40028830F910FBF2F911F910F910F9300E168
:1008E4000EB90F911FEF18B914BB3BD4112718B9D7
:1008F40014BB37D42A952030A9F70F9300E00EB922
:100904000F9100270093010200930F0290CE0F93E2
:100914001F932F930FB70F9308E3F3D302D41BD481
:1009240008E3EFD3FED30ED408E3EBD3FAD308E302
:10093400E8D3F7D308E0E5D3F4D301E0E2D3F1D36D
:1009440006E0DFD3EED30CE0DCD3EBD306E0009378
:10095400000201E4DDD3E5D304E6DAD3E2D30DE605
:10096400D7D3DFD309E6D4D3DCD30EE6D1D3D9D39E
:1009740000E2CED3D6D30DE4CBD3D3D30FE6C8D382
:10098400D0D304E6C5D3CDD305E6C2D3CAD300E29F
:10099400BFD3C7D301E0009309020F931F932F9392
:1009A4000FB70F93D2E0C4E12227002F0A9500303D
:1009B40041F0000F0A9519911881021711F023953F
:1009C400FACF1881109311021981109312020F911A
:1009D4000FBF2F911F910F91005D002F99D3A1D3C9
:1009E40008EA8FD39ED300911102005D002F90D3AB
:1009F40098D300E28DD395D300E28AD392D300E258
:100A040087D38FD300E284D38CD300E281D389D3FC
:100A140000E27ED386D300E27BD383D300E278D393
:100A240080D300911202005D002F72D37AD30F930A
:100A34001F932F930FB70F9300911102093038F0D1
:100A440011E014BB0A3028F013E014BB02C01127D4
:100A540014BB1127003031F0110F1F5F0A950030CD
:100A640009F0FACF18B90F910FBF2F911F910F9171
:100A74000F910FBF2F911F910F9108956FEE44278F
:100A8400F9DAFCCF0F931F932F930FB70F93DF93D4
:100A9400CF939F938F9380910402909105020196C6
:100AA400813A07E0900779F400910B02013018F4C1
:100AB40020E025B90DC020E825B920910B022A9524
:100AC40020930B0205C0809304029093050254C046
:100AD40020911002203091F02170203029F40F93DE
:100AE40000E10EB90F9104C00F9300E00EB90F910D
:100AF400209110022A952093100238C00091000220
:100B0400013041F400910602003061F10A9500932E
:100B140006022CC000910002023061F400910A0226
:100B24000A3241F4009108020030F1F00A95009372
:100B340008021CC0009100020330F1F40091070286
:100B4400003081F0202F2170203041F41FEF2091DC
:100B5400130221272093130228B924BB0A9500937A
:100B6400070204C064DD08C0D2DE06C0C4E0D2E0DF
:100B740000270993088300C08F919F91CF91DF9143
:100B84000F910FBF2F911F910F9118950F931F93E2
:100B94002F930FB70F93DF93CF939F938F930027D8
:100BA40008B904BB00910002063049F0009100022C
:100BB400033019F43CDD0C941B070C941B070F93B2
:100BC4001F932F930FB70F9308E39BD2AAD2C3D2DC
:100BD40008E397D2A6D2B6D208E393D2A2D208E30E
:100BE40090D29FD208E08DD29CD201E08AD299D2D1
:100BF40006E087D296D20CE084D293D201E488D264
:100C040090D204E685D28DD20DE682D28AD209E64C
:100C14007FD287D20EE67CD284D200E279D281D20E
:100C24000DE476D27ED20FE673D27BD204E670D284
:100C340078D205E66DD275D200E26AD272D2009102
:100C44000902005D002F64D26CD208EA5AD269D23C
:100C540000911102005D002F5BD263D200E258D2F2
:100C640060D200E255D25DD200E252D25AD200E202
:100C74004FD257D200E24CD254D200E249D251D2E0
:100C840000E246D24ED204E2002F42D24AD2009170
:100C94001202005D002F3CD244D20F931F932F9376
:100CA4000FB70F9300911102093038F011E014BB13
:100CB4000A3028F013E014BB02C0112714BB11271B
:100CC400003031F0110F1F5F0A95003009F0FACFA0
:100CD40018B90F910FBF2F911F910F910F910FBF53
:100CE4002F911F910F910F931F932F930FB70F9372
:100CF400209111022A3021F0239520931102288398
:100D04000F910FBF2F911F910F910F931F932F934B
:100D14000FB70F9308E3F5D104D21DD208E3F1D144
:100D240000D210D208E3EDD1FCD108E3EAD1F9D125
:100D340008E0E7D1F6D101E0E4D1F3D106E0E1D156
:100D4400F0D10CE0DED1EDD101E4E2D1EAD104E648
:100D5400DFD1E7D10DE6DCD1E4D109E6D9D1E1D187
:100D64000EE6D6D1DED100E2D3D1DBD10DE4D0D171
:100D7400D8D10FE6CDD1D5D104E6CAD1D2D105E67A
:100D8400C7D1CFD100E2C4D1CCD100910902005D1A
:100D9400002FBED1C6D108EAB4D1C3D1009111024B
:100DA400005D002FB5D1BDD100E2B2D1BAD100E2CD
:100DB400AFD1B7D100E2ACD1B4D100E2A9D1B1D165
:100DC40000E2A6D1AED100E2A3D1ABD100E2A0D122
:100DD400A8D104E2002F9CD1A4D100911202005D9D
:100DE400002F96D19ED10F931F932F930FB70F937C
:100DF40000911102093038F011E014BB0A3028F0D8
:100E040013E014BB02C0112714BB1127003031F0CA
:100E1400110F1F5F0A95003009F0FACF18B90F912E
:100E24000FBF2F911F910F910F910FBF2F911F9102
:100E34000F918F919F91CF91DF910F910FBF2F91C0
:100E44001F910F9118950F931F932F930FB70F9323
:100E5400DF93CF939F938F93002708B904BB00912E
:100E64000002063049F000910002033019F4DFDB80
:100E74000C9478080C9478080F931F932F930FB752
:100E84000F9308E33ED14DD166D108E33AD149D15D
:100E940059D108E336D145D108E333D142D108E032
:100EA40030D13FD101E02DD13CD106E02AD139D156
:100EB4000CE027D136D101E42BD133D104E628D17B
:100EC40030D10DE625D12DD109E622D12AD10EE665
:100ED4001FD127D100E21CD124D10DE419D121D195
:100EE4000FE616D11ED104E613D11BD105E610D1AD
:100EF40018D100E20DD115D100910902005D002F37
:100F040007D10FD108EAFDD00CD100911102005D88
:100F1400002FFED006D100E2FBD003D100E2F8D0CE
:100F240000D100E2F5D0FDD000E2F2D0FAD000E228
:100F3400EFD0F7D000E2ECD0F4D000E2E9D0F1D069
:100F440004E2002FE5D0EDD000911202005D002FE5
:100F5400DFD0E7D00F931F932F930FB70F93009118
:100F64001102093038F011E014BB0A3028F013E004
:100F740014BB02C0112714BB1127003031F0110F2C
:100F84001F5F0A95003009F0FACF18B90F910FBF0F
:100F94002F911F910F910F910FBF2F911F910F91BF
:100FA4000F931F932F930FB70F93209111022030AB
:100FB40021F02A952093110228830F910FBF2F91BE
:100FC4001F910F910F931F932F930FB70F9308E364
:100FD40098D0A7D0C0D008E394D0A3D0B3D008E36E
:100FE40090D09FD008E38DD09CD008E08AD099D0CF
:100FF40001E087D096D006E084D093D00CE081D075
:1010040090D001E485D08DD004E682D08AD00DE65C
:101014007FD087D009E67CD084D00EE679D081D009
:1010240000E276D07ED00DE473D07BD00FE670D092
:1010340078D004E66DD075D005E66AD072D000E2AF
:1010440067D06FD000910902005D002F61D069D094
:1010540008EA57D066D000911102005D002F58D0E5
:1010640060D000E255D05DD000E252D05AD000E208
:101074004FD057D000E24CD054D000E249D051D0E8
:1010840000E246D04ED000E243D04BD004E2002F21
:101094003FD047D000911202005D002F39D041D0DB
:1010A4000F931F932F930FB70F93009111020930E1
:1010B40038F011E014BB0A3028F013E014BB02C06E
:1010C400112714BB1127003031F0110F1F5F0A954F
:1010D400003009F0FACF18B90F910FBF2F911F916B
:1010E4000F910F910FBF2F911F910F918F919F918E
:1010F400CF91DF910F910FBF2F911F910F911895F1
:10110400FFCF01BB1FD0169A1DD016981BD008958F
:1011140001BB179A17D0169A15D0169813D01798A2
:1011240008950F93002700BB01BB159A0BD0169AA4
:1011340009D00FB1169807FDF9CF15980FEF00BB32
:101144000F9108958F939F939FE08CE90197F1F796
:101154009F918F910895F6DFF5DFF4DFF3DFF2DF7F
:1011640008950F9304E6F7DF0A950030E1F70F9135
:101174000895F1DFF0DFEFDFEEDFEDDFECDFEBDF33
:10118400EADFE9DFE8DFE7DFE6DFE5DFE4DFE3DF2F
:0C119400E2DFE1DFE0DFDFDFDEDF0895F7
:00000001FF
