:020000020000FC
:0C0000000C9490000C943C020C945402F0
:10005C000C94F3014430A9F060930B011FEF1A9537
:10006C00F1F7109109011F701F3069F051E033272F
:10007C00343049F0212F252351F03395550F0C9432
:10008C003E000C948F00660F43950C943000009149
:10009C000002013001F1433069F0333079F0732FF5
:1000AC00770F730F740F7F5F009100020230B9F06D
:1000BC000C948F0071E4730F0C948F00403029F076
:1000CC00413031F073E20C948F007AE20C948F0083
:1000DC0070E00C948F00ECD01CC02BD11AC0709324
:1000EC000702009100020230A1F4D2E0CAE0072F0F
:1000FC000A95000F2227199110930802188110936A
:10010C000902021711F02395F6CF20910802203036
:10011C0021F308950FEF0DBF01E20EBF0FEF00BBEF
:10012C0007B901B9002701BB02B9C3E0D2E000272F
:10013C0009930883C1E0D2E000270993088300E00B
:10014C0004BD02E005BD01E000936E0010EF1093BA
:10015C000A0102E0009369000DB3016002600DBB5F
:10016C007894CAE0D2E001E0099301E0099300E041
:10017C00099302E0099303E0099301E0099304E079
:10018C00099302E0099300E0099301E0099306E06A
:10019C00099302E0099307E0099301E0099308E051
:1001AC00099302E0099309E0099301E00993CAE07D
:1001BC00D2E001D00EC10F9301E0009300020F9129
:1001CC0008E385D194D1ADD108E381D190D1A0D1F0
:1001DC0008E37DD18CD108E37AD189D108E077D1BD
:1001EC0086D101E074D183D106E071D180D10CE0CD
:1001FC006ED17DD102E372D17AD101E36FD177D187
:10020C0002E36CD174D101E369D171D100E266D102
:10021C006ED101E363D16BD107E360D168D103E701
:10022C005DD165D101E35AD162D100E257D15FD1E2
:10023C0000E254D15CD100E251D159D101E44ED14C
:10024C0056D104E34BD153D108EA41D150D106E544
:10025C0045D14DD105E642D14AD10EE63FD147D129
:10026C0004E63CD144D109E639D141D10EE636D170
:10027C003ED107E633D13BD100E230D138D10DE489
:10028C002DD135D101E62AD132D103E627D12FD198
:10029C0008E624D12CD109E621D129D10EE61ED1B4
:1002AC0026D105E61BD123D10CE00093050208955D
:1002BC000F9302E0009300020F9108E308D117D1CD
:1002CC0030D108E304D113D123D108E300D10FD1ED
:1002DC0008E3FDD00CD108E0FAD009D101E0F7D049
:1002EC0006D106E0F4D003D10CE0F1D000D103E547
:1002FC00F5D0FDD005E6F2D0FAD00CE6EFD0F7D071
:10030C0005E6ECD0F4D003E6E9D0F1D004E7E6D072
:10031C00EED000E2E3D0EBD009E6E0D0E8D004E781
:10032C00DDD0E5D005E6DAD0E2D00DE6D7D0DFD0CF
:10033C00089508E3CCD0DBD0F4D008E3C8D0D7D0F4
:10034C00E7D008E3C4D0D3D008E3C1D0D0D008E0C4
:10035C00BED0CDD001E0BBD0CAD006E0B8D0C7D05B
:10036C000CE0B5D0C4D00FE4B9D0C1D005E7B6D0FD
:10037C00BED004E7B3D0BBD000E2B0D0B8D00FE60B
:10038C00ADD0B5D006E6AAD0B2D000E2A7D0AFD09F
:10039C0003E7A4D0ACD004E7A1D0A9D00FE69ED03F
:1003AC00A6D003E69BD0A3D00BE698D0A0D008EA49
:1003BC008ED09DD010910702105D012F8FD097D059
:1003CC000F9303E0009300020F910CE000930602E0
:1003DC0008956FEE44273EDEFCCF0F931F932F93AF
:1003EC000FB70F93DF93CF939F938F93809103025B
:1003FC00909104020196813A07E0900749F500912B
:10040C000002013041F4009105020030C9F00A9558
:10041C000093050217C0009100020330E9F400912B
:10042C00060208B9003061F02091070221702030DB
:10043C0011F41FEF21270A9508B90093060202C098
:10044C0037DF0AC0C3E0D2E000270993088304C059
:10045C0080930302909304028F919F91CF91DF912F
:10046C000F910FBF2F911F910F9118950F931F9301
:10047C002F930FB70F93DF93CF939F938F9300918D
:10048C000002033009F414DF8F919F91CF91DF911B
:10049C000F910FBF2F911F910F9118950F931F93D1
:1004AC002F930FB70F93DF93CF939F938F9300915D
:1004BC000002033009F4FCDE8F919F91CF91DF9104
:1004CC000F910FBF2F911F910F911895FFCF01BB6B
:1004DC001FD0169A1DD016981BD0089501BB179AE1
:1004EC0017D0169A15D0169813D0179808950F9305
:1004FC00002700BB01BB159A0BD0169A09D00FB17F
:10050C00169807FDF9CF15980FEF00BB0F910895C2
:10051C008F939F939FE08CE90197F1F79F918F91B7
:0E052C000895F6DFF5DFF4DFF3DFF2DF089568
:00000001FF
