:020000020000FC
:0C0000000C9415010C94BF030C94DE035B
:04005C000C945E039F
:100074000C94B9004430A9F060930B011FEF1A955A
:10008400F1F7109109011F701F3081F051E03327FF
:10009400343061F0212F252369F03395550F0C94EA
:1000A4004A0000E000930A020C94B800660F4395DE
:1000B4000C943C0000910002013099F1433069F046
:1000C400333079F0732F770F730F740F7F5F0091C4
:1000D4000002023051F10C94B80071E4730F0C94D7
:1000E400B800403069F04130C9F073E20091000279
:1000F4000430B9F000910002063099F00C94B80075
:100104007AE200910002023089F500910A020A3273
:1001140061F004E1009308020C94970070E00C94E1
:10012400B80060D123C0BAD121C0709309027A32D9
:10013400D9F0009100020230C9F4D2E0C2E1072FE5
:100144000A95000F2227199110930F02188110931A
:100154001002021711F02395F6CF20910F022030E0
:1001640011F3EFD10C94B80070930A0208950F9321
:100174001F932F930FB70F93DF93CF939F938F9377
:10018400E0917800F091790000EC00937C0008E0A5
:1001940000937B000DEC00937A00E03010E0F1074F
:1001A40071F0EF3F13E0F107B9F08F919F91CF9178
:1001B400DF910F910FBF2F911F910F91189500910F
:1001C4000002043091F700910C02003031F10091EB
:1001D4000D02013051F0E9CF00910002043029F7FB
:1001E40000910B02013071F0E0CF00910102000F89
:1001F40003950093010208B90F9300E000930D02E8
:100204000F91D3CF0F9301E000930C020F910F9342
:1002140001E000930D020F91C8CF0F9301E000930A
:100224000B020F91C2CF0FEF0DBF01E20EBF0FEF14
:1002340000BB07B901B903BB002701BB02B908B968
:1002440004BBC4E0D2E0002709930883C2E0D2E0F3
:1002540000270993088300E004BD02E005BD01E026
:1002640000936E0010EF10930A0102E000936900FE
:100274000DB3016002600DBB00EC00937C0008E04C
:1002840000937B000DEC00937A007894C2E1D2E0F5
:1002940001E0099301E0099300E0099302E0099366
:1002A40003E0099301E0099304E0099302E0099350
:1002B40000E0099301E0099306E0099302E0099341
:1002C40007E0099301E0099308E0099302E0099328
:1002D40009E0099301E00993C2E1D2E000E0009350
:1002E400010200930E0201D0E3C10F9301E00093D9
:1002F40000020F9108E380D28FD2A8D208E37CD207
:100304008BD29BD208E378D287D208E375D284D209
:1003140008E072D281D201E06FD27ED206E06CD2C4
:100324007BD20CE069D278D202E36DD275D201E3BC
:100334006AD272D202E367D26FD201E364D26CD282
:1003440000E261D269D201E35ED266D207E35BD2F6
:1003540063D203E758D260D201E355D25DD200E202
:1003640052D25AD200E24FD257D200E24CD254D2E7
:1003740001E449D251D204E346D24ED208EA3CD237
:100384004BD206E540D248D205E63DD245D20EE630
:100394003AD242D204E637D23FD209E634D23CD232
:1003A4000EE631D239D207E62ED236D200E22BD273
:1003B40033D20DE428D230D201E625D22DD203E681
:1003C40022D22AD208E61FD227D209E61CD224D28E
:1003D4000EE619D221D205E616D21ED20CE0009305
:1003E40006020895009100020430B9F4009101025C
:1003F40000930E0200E00093010208B90F9300E09D
:1004040000930D020F910F9300E000930B020F91E4
:100414000F9300E000930C020F910F9302E00093FE
:1004240000020F9108E3E8D1F7D110D208E3E4D138
:10043400F3D103D208E3E0D1EFD108E3DDD1ECD16D
:1004440008E0DAD1E9D101E0D7D1E6D106E0D4D190
:10045400E3D10CE0D1D1E0D103E5D5D1DDD105E67E
:10046400D2D1DAD10CE6CFD1D7D105E6CCD1D4D1D3
:1004740003E6C9D1D1D104E7C6D1CED100E2C3D1BC
:10048400CBD109E6C0D1C8D104E7BDD1C5D105E6B9
:10049400BAD1C2D10DE6B7D1BFD1089508E3ACD12A
:1004A400BBD1D4D108E3A8D1B7D1C7D108E3A4D133
:1004B400B3D108E3A1D1B0D108E09ED1ADD101E020
:1004C4009BD1AAD106E098D1A7D10CE095D1A4D1B3
:1004D4000FE499D1A1D105E796D19ED104E793D138
:1004E4009BD100E290D198D10FE68DD195D106E64B
:1004F4008AD192D100E287D18FD103E784D18CD104
:1005040004E781D189D10FE67ED186D103E67BD180
:1005140083D10BE678D180D108EA6ED17DD11091D8
:100524000902105D012F6FD177D10F9303E000937F
:1005340000020F910CE00093070200E00093110207
:1005440008950F9304E0009300020F9108E354D13F
:1005540063D17CD108E350D15FD16FD108E34CD192
:100564005BD108E349D158D108E046D155D101E027
:1005740043D152D106E040D14FD10CE03DD14CD112
:1005840009E441D149D10EE63ED146D103E73BD13E
:1005940043D105E638D140D102E735D13DD104E756
:1005A40032D13AD100E22FD137D103E62CD134D164
:1005B4000FE629D131D109E626D12ED10EE623D179
:1005C4002BD103E720D128D108EA16D125D10091F7
:1005D400010208B910911002101B105D012F13D1F4
:1005E4001BD1089508E308D117D130D108E304D111
:1005F40013D123D108E300D10FD108E3FDD00CD1EE
:1006040008E0FAD009D101E0F7D006D106E0F4D031
:1006140003D10CE0F1D000D101E4F5D0FDD004E623
:10062400F2D0FAD00DE6EFD0F7D009E6ECD0F4D052
:100634000EE6E9D0F1D000E2E6D0EED00DE4E3D04E
:10064400EBD00FE6E0D0E8D004E6DDD0E5D005E657
:10065400DAD0E2D000E2D7D0DFD00FE3D4D0DCD0C0
:1006640008EACAD0D9D003E2CED0D6D000E2CBD0AB
:10067400D3D000E2C8D0D0D000E2C5D0CDD000E2C3
:10068400C2D0CAD000E2BFD0C7D000E2BCD0C4D030
:1006940000E2B9D0C1D000E2B6D0BED004E2002F4F
:1006A400B2D0BAD00F9306E0009300020F910895E0
:1006B4006FEE4427DFDCFCCF0F931F932F930FB70C
:1006C4000F93DF93CF939F938F9380910402909124
:1006D40005020196813A07E09007A1F50091000216
:1006E400013041F400910602003089F10A9500932B
:1006F400060233C000910002023061F400910A0244
:100704000A3241F400910802003021F10A95009365
:10071400080223C000910002033029F5009107026A
:100724000030A9F0202F2170203041F41FEF2091D8
:10073400110221272093110228B924BB0A950093A2
:1007440007020BC080930402909305020CC00FE0D3
:1007540049DE09C005E546DF06C0C4E0D2E0002753
:100764000993088300C08F919F91CF91DF910F91DE
:100774000FBF2F911F910F9118950F931F932F93D4
:100784000FB70F93DF93CF939F938F930091000242
:10079400033041F4002708B904BB00910002033080
:1007A40009F420DE8F919F91CF91DF910F910FBFBC
:1007B4002F911F910F9118950F931F932F930FB79C
:1007C4000F93DF93CF939F938F9300910002033095
:1007D40041F4002708B904BB00910002033009F476
:1007E40001DE8F919F91CF91DF910F910FBF2F91D8
:1007F4001F910F911895FFCF01BB1FD0169A1DD0E2
:1008040016981BD0089501BB179A17D0169A15D0C5
:10081400169813D0179808950F93002700BB01BBB7
:10082400159A0BD0169A09D00FB1169807FDF9CF77
:1008340015980FEF00BB0F9108958F939F939FE03E
:100844008CE90197F1F79F918F910895F6DFF5DF19
:08085400F4DFF3DFF2DF089589
:00000001FF
