:020000020000FC
:0C0000000C9490000C9445020C945D02DE
:10005C000C94F9014430A9F060930B011FEF1A9531
:10006C00F1F7109109011F701F3069F051E033272F
:10007C00343049F0212F252351F03395550F0C9432
:10008C003E000C948F00660F43950C943000009149
:10009C000002013001F1433069F0333079F0732FF5
:1000AC00770F730F740F7F5F009100020230B9F06D
:1000BC000C948F0071E4730F0C948F00403029F076
:1000CC00413031F073E20C948F007AE20C948F0083
:1000DC0070E00C948F00EFD01CC02ED11AC070931E
:1000EC000702009100020230A1F4D2E0CBE0072F0E
:1000FC000A95000F2227199110930802188110936A
:10010C000902021711F02395F6CF20910802203036
:10011C0021F308950FEF0DBF01E20EBF0FEF00BBEF
:10012C0007B901B903BB002701BB02B908B904BB6D
:10013C00C3E0D2E0002709930883C1E0D2E0002796
:10014C000993088300E004BD02E005BD01E00093C3
:10015C006E0010EF10930A0102E0009369000DB3DA
:10016C00016002600DBB7894CBE0D2E001E0099312
:10017C0001E0099300E0099302E0099303E009937D
:10018C0001E0099304E0099302E0099300E009936C
:10019C0001E0099306E0099302E0099307E0099353
:1001AC0001E0099308E0099302E0099309E009933F
:1001BC0001E00993CBE0D2E001D011C10F9301E033
:1001CC00009300020F9108E38BD19AD1B3D108E3CD
:1001DC0087D196D1A6D108E383D192D108E380D1FF
:1001EC008FD108E07DD18CD101E07AD189D106E0A4
:1001FC0077D186D10CE074D183D102E378D180D150
:10020C0001E375D17DD102E372D17AD101E36FD1D3
:10021C0077D100E26CD174D101E369D171D107E3DC
:10022C0066D16ED103E763D16BD101E360D168D1A4
:10023C0000E25DD165D100E25AD162D100E257D122
:10024C005FD101E454D15CD104E351D159D108EA16
:10025C0047D156D106E54BD153D105E648D150D103
:10026C000EE645D14DD104E642D14AD109E63FD143
:10027C0047D10EE63CD144D107E639D141D100E259
:10028C0036D13ED10DE433D13BD101E630D138D15A
:10029C0003E62DD135D108E62AD132D109E627D192
:1002AC002FD10EE624D12CD105E621D129D10CE099
:1002BC000093050208950F9302E0009300020F9142
:1002CC0008E30ED11DD136D108E30AD119D129D1B9
:1002DC0008E306D115D108E303D112D108E000D10F
:1002EC000FD101E0FDD00CD106E0FAD009D10CE021
:1002FC00F7D006D103E5FBD003D105E6F8D000D149
:10030C000CE6F5D0FDD005E6F2D0FAD003E6EFD03E
:10031C00F7D004E7ECD0F4D000E2E9D0F1D009E654
:10032C00E6D0EED004E7E3D0EBD005E6E0D0E8D0A1
:10033C000DE6DDD0E5D0089508E3D2D0E1D0FAD0B7
:10034C0008E3CED0DDD0EDD008E3CAD0D9D008E395
:10035C00C7D0D6D008E0C4D0D3D001E0C1D0D0D023
:10036C0006E0BED0CDD00CE0BBD0CAD00FE4BFD0DD
:10037C00C7D005E7BCD0C4D004E7B9D0C1D000E2E7
:10038C00B6D0BED00FE6B3D0BBD006E6B0D0B8D056
:10039C0000E2ADD0B5D003E7AAD0B2D004E7A7D025
:1003AC00AFD00FE6A4D0ACD003E6A1D0A9D00BE619
:1003BC009ED0A6D008EA94D0A3D010910702105D6D
:1003CC00012F95D09DD00F9303E0009300020F9165
:1003DC000CE00093060200E000930A0208956FEE11
:1003EC00442738DEFCCF0F931F932F930FB70F9337
:1003FC00DF93CF939F938F9380910302909104028C
:10040C000196813A07E0900761F5009100020130F6
:10041C0041F4009105020030E1F00A9500930502C9
:10042C001AC000910002033001F500910602003061
:10043C0081F0202F2170203041F41FEF20910A020F
:10044C00212720930A0228B924BB0A95009306029F
:10045C0002C031DF0AC0C3E0D2E000270993088351
:10046C0004C080930302909304028F919F91CF91CB
:10047C00DF910F910FBF2F911F910F9118950F9333
:10048C001F932F930FB70F93DF93CF939F938F935C
:10049C0000910002033009F40EDF8F919F91CF91F0
:1004AC00DF910F910FBF2F911F910F9118950F9303
:1004BC001F932F930FB70F93DF93CF939F938F932C
:1004CC0000910002033009F4F6DE8F919F91CF91D9
:1004DC00DF910F910FBF2F911F910F911895FFCFA7
:1004EC0001BB1FD0169A1DD016981BD0089501BBC6
:1004FC00179A17D0169A15D0169813D017980895E6
:10050C000F93002700BB01BB159A0BD0169A09D08C
:10051C000FB1169807FDF9CF15980FEF00BB0F918F
:10052C0008958F939F939FE08CE90197F1F79F912A
:10053C008F910895F6DFF5DFF4DFF3DFF2DF089536
:00000001FF
