:020000020000FC
:0C0000000C9424010C9452040C94710424
:04005C000C94D90324
:100074000C94C2004430A9F060930B011FEF1A9551
:10008400F1F7109109011F701F3081F051E03327FF
:10009400343061F0212F252369F03395550F0C94EA
:1000A4004A0000E000930A020C94C100660F4395D5
:1000B4000C943C00009100020130E1F1433069F0FE
:1000C400333079F0732F770F730F740F7F5F0091C4
:1000D4000002023099F10C94C10071E4730F0C9486
:1000E400C1004030B1F0413011F173E210910E02C1
:1000F400110F10930F0210E010930E0248D40091D8
:1001040000020430B9F000910002063099F00C941A
:10011400C1007AE200910002023089F500910A02DE
:100124000A3261F004E1009308020C94A00070E02C
:100134000C94C1006CD123C0C2D121C070930902B8
:100144007A32D9F0009100020230C9F4D2E0C3E15E
:10015400072F0A95000F2227199110931002188176
:1001640010931102021711F02395F6CF209110027B
:10017400203011F3F7D10C94C10070930A02089552
:100184000F931F932F930FB70F93DF93CF939F93E7
:100194008F93E0917800F091790000EC00937C005B
:1001A40008E000937B000DEC00937A00E03010E04F
:1001B400F10771F0EF3F13E0F107B9F08F919F91D0
:1001C400CF91DF910F910FBF2F911F910F91189530
:1001D40000910002043091F700910C02003061F1AB
:1001E40000910D02013051F0E9CF0091000204307A
:1001F40029F700910B020130A1F0E0CF0091010238
:10020400000F03950093010208B90F9300E00093D7
:100214000D020F9110910E02139510930E02A2D1AC
:10022400CDCF0F9301E000930C020F910F9301E0E7
:1002340000930D020F91C2CF0F9301E000930B02C4
:100244000F91BCCF0FEF0DBF01E20EBF0FEF00BB4C
:1002540007B901B903BB002701BB02B908B904BB44
:10026400C4E0D2E0002709930883C2E0D2E000276B
:100274000993088300E004BD02E005BD01E000939A
:100284006E0010EF10930A0102E0009369000DB3B1
:10029400016002600DBB00EC00937C0008E0009359
:1002A4007B000DEC00937A000FEF0DB900270EB917
:1002B4007894C3E1D2E001E0099301E0099300E0FE
:1002C400099302E0099303E0099301E0099304E030
:1002D400099302E0099300E0099301E0099306E021
:1002E400099302E0099307E0099301E0099308E008
:1002F400099302E0099309E0099301E00993C3E13A
:10030400D2E000E00093010200930E0200930F027A
:1003140001D049C20F9301E0009300020F9108E35A
:10032400FED20DD326D308E3FAD209D319D308E3B6
:10033400F6D205D308E3F3D202D308E0F0D2FFD219
:1003440001E0EDD2FCD206E0EAD2F9D20CE0E7D229
:10035400F6D202E3EBD2F3D201E3E8D2F0D202E325
:10036400E5D2EDD201E3E2D2EAD200E2DFD2E7D273
:1003740001E3DCD2E4D207E3D9D2E1D203E7D6D257
:10038400DED201E3D3D2DBD200E2D0D2D8D200E273
:10039400CDD2D5D200E2CAD2D2D201E4C7D2CFD2D2
:1003A40004E3C4D2CCD208EABAD2C9D206E5BED29A
:1003B400C6D205E6BBD2C3D20EE6B8D2C0D204E69A
:1003C400B5D2BDD209E6B2D2BAD20EE6AFD2B7D216
:1003D40007E6ACD2B4D200E2A9D2B1D20DE4A6D2DF
:1003E400AED201E6A3D2ABD203E6A0D2A8D208E6ED
:1003F4009DD2A5D209E69AD2A2D20EE697D29FD276
:1004040005E694D29CD20CE0009306020895009174
:100414000002043099F400E00093010208B90F933C
:1004240000E000930D020F910F9300E000930B0284
:100434000F910F9300E000930C020F910F9302E0D1
:10044400009300020F9108E36AD279D292D208E3B2
:1004540066D275D285D208E362D271D208E35FD244
:100464006ED208E05CD26BD201E059D268D206E0C9
:1004740056D265D20CE053D262D203E557D25FD292
:1004840005E654D25CD20CE651D259D205E64ED2DE
:1004940056D203E64BD253D204E748D250D200E2FC
:1004A40045D24DD209E642D24AD204E73FD247D2DE
:1004B40005E63CD244D20DE639D241D2089508E390
:1004C4002ED23DD256D208E32AD239D249D208E3F9
:1004D40026D235D208E323D232D208E020D22FD25A
:1004E40001E01DD22CD206E01AD229D20CE017D298
:1004F40026D20FE41BD223D205E718D220D204E778
:1005040015D21DD200E212D21AD20FE60FD217D2A0
:1005140006E60CD214D200E209D211D203E706D2C5
:100524000ED204E703D20BD20FE600D208D203E6C0
:10053400FDD105D20BE6FAD102D208EAF0D1FFD1FF
:1005440010910902105D012FF1D1F9D10F9303E04D
:10055400009300020F910CE00093070200E0009367
:10056400120208950F9304E0009300020F9108E330
:10057400D6D1E5D1FED108E3D2D1E1D1F1D108E35E
:10058400CED1DDD108E3CBD1DAD108E0C8D1D7D1BF
:1005940001E0C5D1D4D106E0C2D1D1D10CE0BFD1A4
:1005A400CED109E4C3D1CBD10EE6C0D1C8D103E783
:1005B400BDD1C5D105E6BAD1C2D102E7B7D1BFD109
:1005C40004E7B4D1BCD100E2B1D1B9D103E6AED1D4
:1005D400B6D10FE6ABD1B3D109E6A8D1B0D10EE6BE
:1005E400A5D1ADD103E7A2D1AAD108EA98D1A7D168
:1005F4000091010208B91091110200910E02101B22
:1006040011302CF0105D012F91D199D108950F93E1
:1006140005E0009300020F9108E381D190D1A9D1A4
:1006240008E37DD18CD19CD108E379D188D108E34A
:1006340076D185D108E073D182D101E070D17FD128
:1006440006E06DD17CD10CE06AD179D104E46ED19D
:1006540076D105E66BD173D10CE668D170D109E689
:1006640065D16DD106E762D16AD105E65FD167D164
:1006740002E75CD164D109E659D161D10EE656D1C5
:100684005ED107E653D15BD100E250D158D109E6DF
:100694004DD155D104E74AD152D105E647D14FD1C6
:1006A4000DE644D14CD123E00F9300E10EB90F9134
:1006B4001FEF18B914BB63D1112718B914BB5FD14C
:1006C4002A952030A9F70F9300E00EB90F91002767
:1006D4000093010200930E029ACE08E320D12FD199
:1006E40048D108E31CD12BD13BD108E318D127D141
:1006F40008E315D124D108E012D121D101E00FD1B2
:100704001ED106E00CD11BD10CE009D118D101E4B3
:100714000DD115D104E60AD112D10DE607D10FD1BE
:1007240009E604D10CD10EE601D109D100E2FED0D4
:1007340006D10DE4FBD003D10FE6F8D000D104E6D6
:10074400F5D0FDD005E6F2D0FAD000E2EFD0F7D034
:100754000FE3ECD0F4D008EAE2D0F1D003E2E6D023
:10076400EED000E2E3D0EBD000E2E0D0E8D000E24B
:10077400DDD0E5D000E2DAD0E2D000E2D7D0DFD09D
:1007840000E2D4D0DCD000E2D1D0D9D000E2CED087
:10079400D6D004E2002FCAD0D2D00F9306E0009343
:1007A40000020F9108956FEE442764DCFCCF0F9391
:1007B4001F932F930FB70F93DF93CF939F938F9331
:1007C40080910402909105020196813A07E0900716
:1007D40009F405C0809304029093050257C0209148
:1007E4000F02203091F02170203029F40F9300E1A2
:1007F4000EB90F9104C00F9300E00EB90F91209130
:100804000F022A9520930F023BC000910002013091
:1008140049F400910602003009F42CC00A950093B3
:1008240006022EC000910002023061F400910A0217
:100834000A3241F4009108020030F9F00A9500935D
:1008440008021EC000910002033001F50091070266
:10085400003081F0202F2170203041F41FEF2091CF
:10086400120221272093120228B924BB0A9500936F
:10087400070206C00FE0CBDD09C005E52EDF06C088
:10088400C4E0D2E000270993088300C08F919F91B0
:10089400CF91DF910F910FBF2F911F910F91189559
:1008A4000F931F932F930FB70F93DF93CF939F93C0
:1008B4008F9300910002033041F4002708B904BB70
:1008C40000910002033009F4A2DD8F919F91CF9132
:1008D400DF910F910FBF2F911F910F9118950F93D7
:1008E4001F932F930FB70F93DF93CF939F938F9300
:1008F40000910002033041F4002708B904BB0091C1
:100904000002033009F483DD8F919F91CF91DF9131
:100914000F910FBF2F911F910F911895FFCF01BB1E
:100924001FD0169A1DD016981BD0089501BB179A94
:1009340017D0169A15D0169813D0179808950F93B8
:10094400002700BB01BB159A0BD0169A09D00FB132
:10095400169807FDF9CF15980FEF00BB0F91089576
:100964008F939F939FE08CE90197F1F79F918F916B
:100974000895F6DFF5DFF4DFF3DFF2DF08950F9378
:1009840004E6F7DF0A950030E1F70F910895F1DFEF
:10099400F0DFEFDFEEDFEDDFECDFEBDFEADFE9DFF7
:1009A400E8DFE7DFE6DFE5DFE4DFE3DFE2DFE1DF27
:0809B400E0DFDFDFDEDF089564
:00000001FF
