:020000020000FC
:0C0000000C9490000C9445020C946002DB
:10005C000C94F9014430A9F060930B011FEF1A9531
:10006C00F1F7109109011F701F3069F051E033272F
:10007C00343049F0212F252351F03395550F0C9432
:10008C003E000C948F00660F43950C943000009149
:10009C000002013001F1433069F0333079F0732FF5
:1000AC00770F730F740F7F5F009100020230B9F06D
:1000BC000C948F0071E4730F0C948F00403029F076
:1000CC00413031F073E20C948F007AE20C948F0083
:1000DC0070E00C948F00EFD01CC02ED11AC070931E
:1000EC000702009100020230A1F4D2E0CBE0072F0E
:1000FC000A95000F2227199110930802188110936A
:10010C000902021711F02395F6CF20910802203036
:10011C0021F308950FEF0DBF01E20EBF0FEF00BBEF
:10012C0007B901B903BB002701BB02B908B904BB6D
:10013C00C3E0D2E0002709930883C1E0D2E0002796
:10014C000993088300E004BD02E005BD01E00093C3
:10015C006E0010EF10930A0102E0009369000DB3DA
:10016C00016002600DBB7894CBE0D2E001E0099312
:10017C0001E0099300E0099302E0099303E009937D
:10018C0001E0099304E0099302E0099300E009936C
:10019C0001E0099306E0099302E0099307E0099353
:1001AC0001E0099308E0099302E0099309E009933F
:1001BC0001E00993CBE0D2E001D011C10F9301E033
:1001CC00009300020F9108E391D1A0D1B9D108E3BB
:1001DC008DD19CD1ACD108E389D198D108E386D1DB
:1001EC0095D108E083D192D101E080D18FD106E086
:1001FC007DD18CD10CE07AD189D102E37ED186D12C
:10020C0001E37BD183D102E378D180D101E375D1B5
:10021C007DD100E272D17AD101E36FD177D107E3BE
:10022C006CD174D103E769D171D101E366D16ED180
:10023C0000E263D16BD100E260D168D100E25DD104
:10024C0065D101E45AD162D104E357D15FD108EAF8
:10025C004DD15CD106E551D159D105E64ED156D1DF
:10026C000EE64BD153D104E648D150D109E645D125
:10027C004DD10EE642D14AD107E63FD147D100E23B
:10028C003CD144D10DE439D141D101E636D13ED136
:10029C0003E633D13BD108E630D138D109E62DD174
:1002AC0035D10EE62AD132D105E627D12FD10CE07B
:1002BC000093050208950F9302E0009300020F9142
:1002CC0008E314D123D13CD108E310D11FD12FD195
:1002DC0008E30CD11BD108E309D118D108E006D1F1
:1002EC0015D101E003D112D106E000D10FD10CE001
:1002FC00FDD00CD103E501D109D105E6FED006D124
:10030C000CE6FBD003D105E6F8D000D103E6F5D01E
:10031C00FDD004E7F2D0FAD000E2EFD0F7D009E636
:10032C00ECD0F4D004E7E9D0F1D005E6E6D0EED07D
:10033C000DE6E3D0EBD0089508E3D8D0E7D000D198
:10034C0008E3D4D0E3D0F3D008E3D0D0DFD008E377
:10035C00CDD0DCD008E0CAD0D9D001E0C7D0D6D0FF
:10036C0006E0C4D0D3D00CE0C1D0D0D00FE4C5D0BF
:10037C00CDD005E7C2D0CAD004E7BFD0C7D000E2C9
:10038C00BCD0C4D00FE6B9D0C1D006E6B6D0BED032
:10039C0000E2B3D0BBD003E7B0D0B8D004E7ADD007
:1003AC00B5D00FE6AAD0B2D003E6A7D0AFD00BE6FB
:1003BC00A4D0ACD008EA9AD0A9D010910702105D55
:1003CC00012F9BD0A3D00F9303E0009300020F9159
:1003DC000CE00093060200E000930A0208956FEE11
:1003EC00442738DEFCCF0F931F932F930FB70F9337
:1003FC00DF93CF939F938F9380910302909104028C
:10040C000196813A07E0900761F5009100020130F6
:10041C0041F4009105020030E1F00A9500930502C9
:10042C001AC000910002033001F500910602003061
:10043C0081F0202F2170203041F41FEF20910A020F
:10044C00212720930A0228B924BB0A95009306029F
:10045C0002C031DF0AC0C3E0D2E000270993088351
:10046C0004C080930302909304028F919F91CF91CB
:10047C00DF910F910FBF2F911F910F9118950F9333
:10048C001F932F930FB70F93DF93CF939F938F935C
:10049C0000E008B904BB00910002033009F40BDF43
:1004AC008F919F91CF91DF910F910FBF2F911F9142
:1004BC000F9118950F931F932F930FB70F93DF93F3
:1004CC00CF939F938F9300E008B904BB0091000277
:1004DC00033009F4F0DE8F919F91CF91DF910F9152
:1004EC000FBF2F911F910F911895FFCF01BB1FD0FC
:1004FC00169A1DD016981BD0089501BB179A17D0C9
:10050C00169A15D0169813D0179808950F930027A4
:10051C0000BB01BB159A0BD0169A09D00FB11698D7
:10052C0007FDF9CF15980FEF00BB0F9108958F932E
:10053C009F939FE08CE90197F1F79F918F9108951C
:0C054C00F6DFF5DFF4DFF3DFF2DF0895E7
:00000001FF
